:020000040800F2
:1000000000500020CD430008A9420008AB42000880
:1000100000000000000000000000000000000000E0
:10002000000000000000000000000000AD420008D9
:100030000000000000000000AF420008B1420008CC
:100040001D4400081D4400081D4400081D4400080C
:100050001D4400081D4400081D440008B942000862
:100060001D4400081D440008094300081D44000801
:100070001D4400081D4400081D4400081D440008DC
:1000800021430008314300081D440008000000001F
:100090001D4400081D440008414300081D44000899
:1000A0001D4400081D4400081D4400085143000879
:1000B0001D4400081D4400081D4400081D4400089C
:1000C00010B5064C2378002B07D1054B002B02D02E
:1000D000044800E000BF0123237010BD040000208D
:1000E0000000000078440008044B10B5002B03D03A
:1000F0000349044800E000BF10BDC04600000000F6
:100100000800002078440008002243088B4274D382
:1001100003098B425FD3030A8B4244D3030B8B4208
:1001200028D3030C8B420DD3FF22090212BA030C11
:100130008B4202D31212090265D0030B8B4219D3F2
:1001400000E0090AC30B8B4201D3CB03C01A524112
:10015000830B8B4201D38B03C01A5241430B8B425A
:1001600001D34B03C01A5241030B8B4201D30B0343
:10017000C01A5241C30A8B4201D3CB02C01A52416A
:10018000830A8B4201D38B02C01A5241430A8B422D
:1001900001D34B02C01A5241030A8B4201D30B0216
:1001A000C01A5241CDD2C3098B4201D3CB01C01A30
:1001B000524183098B4201D38B01C01A524143093A
:1001C0008B4201D34B01C01A524103098B4201D328
:1001D0000B01C01A5241C3088B4201D3CB00C01A95
:1001E000524183088B4201D38B00C01A524143080D
:1001F0008B4201D34B00C01A5241411A00D2014632
:10020000524110467047FFE701B5002000F0F0F8BA
:1002100002BDC0460029F7D076E7704703460B437E
:100220007FD4002243088B4274D303098B425FD3EF
:10023000030A8B4244D3030B8B4228D3030C8B421B
:100240000DD3FF22090212BA030C8B4202D3121201
:10025000090265D0030B8B4219D300E0090AC30BD6
:100260008B4201D3CB03C01A5241830B8B4201D383
:100270008B03C01A5241430B8B4201D34B03C01A6C
:100280005241030B8B4201D30B03C01A5241C30AE4
:100290008B4201D3CB02C01A5241830A8B4201D355
:1002A0008B02C01A5241430A8B4201D34B02C01A3F
:1002B0005241030A8B4201D30B02C01A5241CDD2E4
:1002C000C3098B4201D3CB01C01A524183098B422F
:1002D00001D38B01C01A524143098B4201D34B0118
:1002E000C01A524103098B4201D30B01C01A52417B
:1002F000C3088B4201D3CB00C01A524183088B4202
:1003000001D38B00C01A524143088B4201D34B00EA
:10031000C01A5241411A00D201465241104670475C
:100320005DE0CA0F00D04942031000D34042534061
:1003300000229C4603098B422DD3030A8B4212D321
:10034000FC22890112BA030A8B420CD38901921153
:100350008B4208D3890192118B4204D389013AD090
:10036000921100E08909C3098B4201D3CB01C01A65
:10037000524183098B4201D38B01C01A5241430978
:100380008B4201D34B01C01A524103098B4201D366
:100390000B01C01A5241C3088B4201D3CB00C01AD3
:1003A000524183088B4201D38B00C01A5241D9D2EB
:1003B00043088B4201D34B00C01A5241411A00D26C
:1003C0000146634652415B10104601D34042002B68
:1003D00000D54942704763465B1000D3404201B5E7
:1003E000002000F005F802BD0029F8D016E770479C
:1003F0007047C0468446081C6146FFE71FB500F001
:1004000037FC002801D40021C8421FBD10B500F000
:10041000B9FB4042013010BD10B500F029FC0028A6
:1004200001DB002010BD012010BDC04610B500F05A
:100430001FFC002801DD002010BD012010BDC046BA
:1004400010B500F0C7FB002801DC002010BD012022
:1004500010BDC04610B500F0BDFB002801DA002039
:1004600010BD012010BDC046002B11D1002A0FD1B4
:10047000002900D1002802D00021C943081C07B47C
:10048000024802A14018029003BDC04665FFFFFF6D
:1004900003B4684601B5029800F006F8019B9E4639
:1004A00002B00CBC7047C046F0B54F464646D64633
:1004B000C0B5040082B00D00914698468B422FD8FB
:1004C0002CD04146484600F0A1FF2900060020003C
:1004D00000F09CFF331A9C46203B9A4600D576E0FC
:1004E0004B46524693401F004B46624693401E00C7
:1004F000AF4228D825D05346A41BBD41002B00DABB
:100500007BE0002200230092019301235246934096
:100510000193012362469340009318E08242D0D9B0
:1005200000220023009201930A9B002B01D01C6043
:100530005D600098019902B01CBC90469946A246A5
:10054000F0BDA342D7D90022002300920193634655
:10055000002BE9D0FB079846414672080A437B0806
:1005600066460EE0AB4201D1A2420CD8A41A9D41CE
:10057000012024196D410021013E24184D41002E17
:1005800006D0AB42EED9013E24196D41002EF8D1C0
:1005900000980199534600196941002B23DB2B0079
:1005A0005246D3402A006446E2401C0053461500E0
:1005B000002B2DDB26005746BE4033002600674641
:1005C000BE403200801A994100900191ACE762462A
:1005D00020239B1A4A46DA406146130042468A406D
:1005E00017001F4380E7624620239B1A2A006646B5
:1005F0009A402300F3401343D4E7624620230021AE
:100600009B1A0022009101920122DA40019280E7B8
:100610002023624626009B1ADE402F00B046664625
:10062000B74046463B003343C8E7C046F8B54746A7
:10063000CE4643025B0A4400C20F9C464800DD00E0
:100640004B02240E5B0A000E80B5984626009146A8
:10065000C90FDB00271A8A4229D0002F15DD002898
:100660004AD1002B00D095E0ED08FF2C00D188E0A6
:100670006B025B0AE6B25B02F605580A3043D2070A
:1006800010430CBC90469946F8BD002F00D087E07F
:10069000601CC0B2012800DCB6E0EE1A720100D581
:1006A000C5E0002E3DD1002200260023E3E7002F05
:1006B00000DC96E000285DD0FF2C60D08022D204C0
:1006C00013431B2F00DDECE02022D21B18009340C7
:1006D000F8405A1E93410343ED186B017BD501345A
:1006E000FF2C00D1B7E0012207262A406B089A4D63
:1006F0001D4015432E4029E0FF2CB5D08022D204A6
:1007000013431B2F00DDB2E02022D21B19009340BF
:10071000F9405A1E93410B43ED1A6B015BD5AD01B5
:10072000AE09300000F054FE05388640844265DC96
:10073000041B330020200134E340041BA640751E37
:10074000AE41334307261D0000241E4001224B46C4
:100750001A40002E04D00F232B40042B00D0043568
:100760006B0100D480E70134E6B2FF2C2FD1FF26C5
:10077000002380E7002B52D1FF2C00D074E70A0041
:10078000ED08002DF3D08023DB032B435B025B0AD3
:10079000FF2670E7013F002FBED0FF2CB1D163E7E9
:1007A000002C47D0FF2869D08024E4047A422543F6
:1007B0001B2A00DDC5E02C002026D440B21A95404B
:1007C0006A1E954125435D1B04008946A5E7AB01E0
:1007D0005B0A50E7002401224B461A406B07BAD14E
:1007E00042E7002F3BD10134E0B201284ADDFF2C63
:1007F000BDD00726ED186D082E40A7E70723574DFB
:10080000241A35401E40A1E7002C1BD1002D6ED1CB
:10081000002B00D19AE00A001D003C0024E7013FB4
:10082000002F00D158E7FF2C00D04AE7A7E75E1B56
:10083000894676E7002D1CD10A00FF281FD004004E
:100840001D0011E7002D5DD1002B17D18023002260
:10085000DB03FF260FE70A00FF2600230BE7002C2F
:1008600021D1002D66D1FF28E9D11D0087E70123A2
:1008700052E77A1CA7D0FA43FF2899D10A001D003D
:10088000FF24F1E6002E21D1002D4FD0002B4CD0BB
:10089000ED186B019ED5314B07362E4001241D40CB
:1008A00054E7012318E7FF28DFD08024E4047F42C7
:1008B00025431B2F4DDC2026F61B2C00B540FC40A9
:1008C0006A1E95412543ED18040006E7002DCCD0A3
:1008D000002B00D153E780216046C903084203D0B2
:1008E0004046084200D11D000121114047E7002B7E
:1008F00000D1B9E6EA1A500125D507265D1B2E4026
:10090000894623E7FF24002B00D1ADE68022604614
:10091000D203104204D04046104201D11D00894646
:1009200001224B46FF241A409EE62B00DD080A00F8
:1009300000249DE67A1CC6D0FF43FF28B9D11D00D4
:100940001DE701253FE7151E00D044E700220023E4
:1009500091E60125B7E7C046FFFFFF7DFFFFFFFBE4
:10096000F8B557464E464546DE464402E0B54600D9
:100970008846640A360EC70F002E63D0FF2E24D09F
:100980008023E400DB041C43002399469B467F3E02
:10099000434642465D02D20F5B006D0A1B0E904635
:1009A000924665D0FF2B55D080220021ED00D20465
:1009B0007F3B1543F61A43464A467B400F2A00D92F
:1009C0008DE06D48920082589746002C54D1082340
:1009D0009946063BFF269B46DAE700255346022947
:1009E0001BD0032900D1BFE0012928D030007F307F
:1009F000002820DD6A0704D00F222A40042A00D0F4
:100A000004352A0103D530005C4A80301540FE28A9
:100A100003DCAC01640AC2B201E0FF2200246402DC
:100A2000D205600ADB07104318433CBC9046994648
:100A3000A246AB46F8BD0122101A1B287CDD00221D
:100A40000024ECE7002C1DD104239946033B00262B
:100A50009B469DE7FF3E002D20D1022143464A469A
:100A60007B400A430F2AD8D84548920082589746BF
:100A7000002D19D10121F1E70C239946093BFF26EE
:100A80009B4685E7200000F0A3FC7626431F9C4090
:100A900000237642361A99469B4679E74A46032355
:100AA0001A439146032186E7280000F091FC431F7A
:100AB00036189D40763600217DE780240023E4032C
:100AC000FF22ACE700258023DB031C4228D01D4217
:100AD00026D12B435C02640A4346FF229FE7620152
:100AE0006C01A24224D21B210025013E01271000E7
:100AF0006D005200002801DB944201D8121B3D43D7
:100B000001390029F3D11400621E944125436DE799
:100B1000BA46594625005346022900D061E77CE7D2
:100B20008023DB031C436402640A3B00FF2276E758
:100B3000121B1A210125D9E79E362A00B5402C0048
:100B4000C240651EAC411443620704D00F2222400C
:100B5000042A00D00434620103D4A401640A0022F0
:100B60005DE7012200245AE78024E4032C43640259
:100B7000640AFF2253E7C046FC440008FFFFFFF76A
:100B80003C45000870B542004E024C0045026D0A1B
:100B9000120EC30F760A240EC90FFF2A0FD0FF2CA6
:100BA00011D00120A24200D070BDB542FCD18B42D1
:100BB0000DD0002AF8D12800451EA841F4E70120F5
:100BC000002DF1D1EBE70120002EEDD1E9E7002067
:100BD000EAE7C04670B54A004E02450244006D0A7D
:100BE000240EC30F760A120EC90FFF2C15D0FF2A50
:100BF0000ED0002C15D1002A01D1002E1CD0002DC2
:100C000014D08B4227D00220013B1840013870BD20
:100C1000002EEED002204042F9E7002DFAD1FF2A43
:100C20000ED0002A0ED1002EEDD00BE001230139A9
:100C3000994308000130EAE70020002DE7D0E2E701
:100C4000002EE7D18B42DED1944205DD0221581EF1
:100C500008400138DBE70024A24204DCB542D2D8C8
:100C60000020B542D3D2581E012398430130CEE76D
:100C700030B5420044024D02C30F4800640A120E10
:100C80006D0A000EC90FFF2A12D0FF280CD0002ACF
:100C900012D1002819D1002D17D1002C2BD0022001
:100CA000013B1840013826E0002DF0D0022022E060
:100CB000002CFBD1FF281FD000281FD1002D1DD1F3
:100CC0000220013B1840013815E0002C0ED08B4269
:100CD000E5D10022904204DCAC42E0D80020AC42D6
:100CE00009D2581E01239843013004E00123013941
:100CF00099430800013030BD002DD7D18B42CED1B1
:100D00008242E7DD0221581E08400138F3E7C04661
:100D1000F0B54E4657464546DE46E0B543025B0A0F
:100D2000450083B00F1C99462D0EC60F002D57D0DD
:100D3000FF2D24D08020DB00C0041843002381460F
:100D40009A469B467F3D7C027A00FB0F640A120E96
:100D5000984623D0FF2A4BD0E30080240020E404EF
:100D60007F3A1C43AD186B1C4746019353467740AE
:100D70003A000F2B48D87D499B00CB589F46002B4B
:100D800000D085E008339A46063B9B467C027A00F9
:100D9000FB0FFF25640A120E9846DBD1002C00D011
:100DA00090E0524601231A4392460120DBE74C466D
:100DB00058461700022824D0032800D1CFE0002293
:100DC000002301284DD15802D205400AFF071043E5
:100DD000384303B03CBC90469946A246AB46F0BDB2
:100DE000002B5BD104239A46033B00259B46AAE7D0
:100DF000FF35002C60D1524602231A43924602204E
:100E0000B1E7FF220023DEE74B461B0C9C464B4616
:100E10002604360C180461463300220C6446000C8C
:100E200043434E435043544380191A0C12189642C0
:100E300003D9802149028C4664441B041B0C100416
:100E4000C01883015E1EB341800E1843130C1B199A
:100E50009B0103431C00230179D5012362081C4038
:100E60001443019A7F32002A4DDD630704D00F231B
:100E70002340042B00D00434230103D53C4B019ABA
:100E80001C408032FE2ABCDCA3015B0AD2B29AE786
:100E90000C239A46093BFF259B4654E7180000F0B7
:100EA00097FA4A46431F76259A4000236D429146A1
:100EB0002D1A9A469B4646E7524603231A4392460A
:100EC000032050E7200000F083FA431F2D1A9C40B6
:100ED000763D002047E780230027DB03FF2272E7EF
:100EE000424666E74C463200584662E780234A464F
:100EF000DB031A4222D01C4220D123435B025B0A4F
:100F00004746FF225FE701239A1A1B2A21DC2300B0
:100F10000199D3409E318C401A0023005C1EA341EE
:100F200013435A0704D00F221A40042A00D0043376
:100F30005A0111D49B015B0A002244E780234A46F0
:100F4000DB0313435B025B0A3700FF223BE701959B
:100F500087E70022002336E70122002333E78023BE
:100F6000DB0323435B025B0AFF222CE77C4500087E
:100F7000FFFFFFF7F8B54746CE464400C20F80B5E5
:100F800047024802400A8446664648007F0A240E0B
:100F9000F60025009046FB00000EC90FB146FF2861
:100FA00000D185E001267140261A914257D0002ECB
:100FB00043DD002800D07FE04946002900D1AAE0A7
:100FC000013E002E00D0F7E05B1A5A0100D48BE0FE
:100FD0009B019C09200000F0FBF905388440854204
:100FE00000DDD3E0451B230020200135EB40451BED
:100FF000AC40621E94412343072400251C4001227B
:1010000041460A40002C04D00F211940042900D089
:101010000433590100D480E00135ECB2FF2D00D03B
:10102000A3E0FF2400235B02E405580AD207204313
:1010300010430CBC90469946F8BD002E74D1601C3C
:10104000C0B2012800DCA7E04A469C1A620100D524
:10105000B6E0002CBED1002200240023E3E7002EDE
:1010600000DC85E0002846D0FF2C49D0802248468D
:10107000D2041043814601221B2E09DC20204C465D
:10108000801B84404A462000F240441EA041024397
:101090009B185A0128D50135FF2D00D1A8E0012267
:1010A000072494491A405B080B4013431C40A6E7F1
:1010B000002E00D078E775E7FF2C54D080224946F7
:1010C000D2041143894601221B2E09DC2021484607
:1010D000891B88404A460100F240481E81410A436C
:1010E0009B1A5A0100D573E7012241460A4059076D
:1010F00000D089E711E04846002858D1FF2C0CD1D8
:10110000DB08002B00D18CE78020C00303435B0287
:101110005B0AFF2487E7FF2C25D0DB08FF2DF0D0EA
:101120005B025B0AECB27EE7002C4DD0FF2818D0A2
:101130008024E404724223431B2A00DDC4E01C0027
:101140002025D440AA1A93405A1E934123434A466D
:101150000500D31A884638E7721CF8D0F243FF28FE
:10116000EAD10A004B46FF25D7E79B015B0A5AE705
:10117000002E41D1651CE9B2012945DDFF2D00D1CA
:101180004FE707244B445B081C4038E707225A4BC3
:101190002D1A2340144032E7002C1DD1002B7AD1A8
:1011A0004B46002B00D191E00A000025B5E7013E37
:1011B000002E19D14B446CE7FF2C84D1FF25ACE7FE
:1011C0004A468846D41A05E7002BC5D10A00FF28F5
:1011D000C8D005004B46A0E7002B49D14B46002B59
:1011E00077D00A00FF2598E7FF2C00D043E787E778
:1011F0000A00FF24002316E7002C15D1002B57D13D
:10120000FF28E6D14B467BE7002C20D1002B57D09E
:101210004946002953D04B445A0168D50724364A21
:101220001C4001251340EAE6FF28EBD08022D204BF
:10123000764213431B2E53DC2025AD1B1A00AB4016
:10124000F2405C1EA34113434B44050021E7002BF1
:10125000D8D04946002900D152E78021C9030F4266
:1012600000D14DE76046084200D049E74B4647E7CA
:101270004846FF25002800D14FE78022D2031742BD
:1012800004D06046104201D14B46884601224146B7
:10129000FF250A4041E7484600281FD01A1A50018E
:1012A00020D54A460724D31A1C4088460025A6E6C6
:1012B000741CC9D0F643FF28BCD14B4620E79946A1
:1012C0004B460025DB082BE7012340E700220023E3
:1012D000A9E680230022DB03FF24A4E600251CE707
:1012E0000123B1E7002AF1D013000025FCE6002518
:1012F000FAE6C046FFFFFF7DFFFFFFFB4102420011
:10130000C30F490A120E00207E2A0DD99D2A0CD83F
:10131000802000040143952A0ADC9620821AD140DD
:101320004842002B00D108007047034A9818FBE799
:10133000963A9140F4E7C046FFFFFF7F70B5002862
:101340003DD0C317C5185D40C40F280000F040F819
:101350009E22121A962A07DCD2B2082833DD0838FA
:1013600085406802400A23E0992A0BDD0523290005
:101370001B1AD94003001B339D402B005D1EAB415F
:1013800019430D00052801DD431F9D402B000F4927
:101390000B406E0709D00F263540042D05D00433CD
:1013A0005D0102D59F220B40121A9B01580AD2B24E
:1013B0004002D205400AE4071043204370BD0024D8
:1013C00000220020F4E76802400AF1E7FFFFFFFB7C
:1013D0001C2101231B04984201D3000C10391B0A65
:1013E000984201D3000A08391B09984201D3000929
:1013F000043902A2105C40187047C0460403020280
:1014000001010101000000000000000010B50029EA
:1014100003D1FFF7DDFF203002E0081CFFF7D8FF03
:1014200010BDC04610B50400094B1868FA218900A8
:10143000FEF76AFE00F070F8002801D0012010BD10
:10144000013000222100404200F02CF80020F6E795
:101450000000002010B5084A136840210B431360B8
:101460000020FFF7DFFF041E02D00124200010BD82
:1014700002F00AFEFAE7C04600200240014B18685D
:101480007047C0462000002070B50400FFF7F6FF4B
:101490000500631C00D00134FFF7F0FF401BA042A1
:1014A000FAD370BD70B5002811DB8408134DC03429
:1014B000A400625903231840C000FC331E0086407C
:1014C000B24389010B4083401343635170BDC0B2E6
:1014D0000F220240083A920806329200084BD318B5
:1014E0005D6803242040C000FF2214008440A5430F
:1014F00089010A4082402A435A60E7E700E100E0A0
:1015000000ED00E01F2318401E3B8340014A13609A
:101510007047C04600E100E001380A4B98420FD8FE
:10152000094A50600948036A1B021B0AC0210906C8
:101530000B4303620023936007331360002070475E
:101540000120FCE7FFFFFF0010E000E000ED00E0FD
:1015500070B5041E3DD005681F4BE8181421FEF736
:10156000D3FD800060641D4B236425230222E254D6
:101570002B681B4A1A40A368E1680B4321690B439F
:1015800061690B43A1690B43E1690B43216A0B437A
:1015900013432B608023DB01A2689A4210D0114BC9
:1015A00019681C22656C15400F20A8408143196002
:1015B0001968606C02406068904002000A431A603B
:1015C0000023E36325220121A154013AA354002002
:1015D00070BD0120FCE7C046F8FFFDBF00000240DF
:1015E0000F80FFFFA800024010B52523C35C022B2B
:1015F00003D00423C363012010BD026813680E21C9
:101600008B43136001680A6801239A430A601C2215
:10161000416C0A40016C1C0094404C6025228354AC
:1016200023330022C254836B002B02D09847002042
:10163000E2E70020E0E770B5036C196804682568EC
:101640001C23426C134004229A40114214D06A07B2
:1016500012D523689B0603D4236804229343236096
:101660001C22436C1A40016C042393404B60036BB3
:10167000002B00D0984770BD02229A4011421AD028
:10168000AA0718D523689B0606D423680A22934329
:1016900023602523093AC2541C22436C1A40016C72
:1016A000022393404B6024230022C254C36A002BC0
:1016B000E1D09847DFE708229A401142DBD02B07A0
:1016C000D9D523680E22934323600E32436C1A400F
:1016D000016C01231C0094404C60C3632522835499
:1016E00023330022C254436B002BC4D09847C2E777
:1016F000F0B5C64600B5002338E0052600E0002618
:10170000AE4035003D430234A400584EA551584C1C
:1017100025684246D4432E0026404A68D20302D5AB
:10172000424615432E00524D2E606D682E00264015
:101730004A68920302D5424615432E004C4D6E6016
:10174000AD682E0026404A68D20202D542461543B3
:101750002E00474DAE60ED682C404A68920202D5DB
:1017600042462A431400424AD46001330A681400F6
:10177000DC4077D001249C4022409046F5D04D6853
:10178000022D01D0122D0ED1DD080835AD002F58E5
:1017900007261E40B6000F22B24097430A69B240A6
:1017A00016003E432E504D686E1E012E03D9112D9A
:1017B00001D0122D12D185685F000326BE40B543CB
:1017C0002E00CD68BD40354385604568A5434A6815
:1017D0001609012434409C402C43446007685E0095
:1017E00003242500B540ED432F404A681440B4401F
:1017F0003C430460C46825408C68B4402C43C460FA
:101800004A68D200B1D51B4D6C6B012634436C6322
:101810009C08A51CAD00154EAF5903261E40B5000F
:101820000F26AE40B743A026F605B04200D166E7CA
:10183000114EB0420ED0114EB0420DD0104EB042FB
:101840000CD0104EB0420BD00F4EB04200D154E736
:10185000062655E7012653E7022651E703264FE700
:1018600004264DE704BC9046F0BDC0460000014090
:101870000004014000100240000400500008005025
:10188000000C005000100050001C005003690B4277
:1018900001D1002070470120FCE7002A01D18162BC
:1018A00070478161FCE7000010B5054B5B69184289
:1018B00000D110BD024B586101F0ACFDF9E7C04604
:1018C0000004014010B5264BD9680C230B40082BAF
:1018D00042D00C2B11D0042B09D0214B5A68520B4B
:1018E00007231340013380200002984010BD1C4B99
:1018F0001B68DB0632D51B48F8E78A0C0F23134020
:10190000194AD05C890D032211400131144BDB6868
:10191000DB030DD4124B1B68DB0613D54201121AF0
:1019200093019B1ADB001B181802FEF7EDFBDDE7A5
:101930004201121A93019B1ADB001B185802FEF792
:10194000E3FBD3E74201121A93019B1ADB001B1839
:101950009802FEF7D9FBC9E70448C7E70448C5E782
:101960000010024000093D00D844000800127A002F
:101970000024F400F0B583B0041E00D19DE2C44BF6
:10198000DA680C251540DA6880267602164003686E
:10199000DB0736D5082D2CD00C2D28D0636880228B
:1019A0005202934255D0A022D202934258D0B84B53
:1019B0001A68B8490A401A601A68802149020A4028
:1019C0000192019A1A68B4490A401A606368002BB0
:1019D00052D0FFF753FD0700AD4B1B689B0310D49B
:1019E000FFF74CFDC01B6428F6D9032066E2002EE9
:1019F000D4D0A74B1B689B0303D56368002B00D191
:101A00005EE223689B076CD5E3689A0605D5A0487B
:101A1000026820210A4302608B43042D3CD00C2D28
:101A200038D0002B00D1AEE099490A6809208243E2
:101A300013430B60FFF722FD0600954B1B685B0705
:101A400000D597E0FFF71AFD801B0228F5D9032087
:101A500034E28F4A116880235B020B431360B5E7C1
:101A60008B4B19688022D2020A431A6019688022BF
:101A700052020A431A60A9E7FFF700FD0700844BF2
:101A80001B689B03BDD5FFF7F9FCC01B6428F6D982
:101A9000032013E2002EC4D17D4A1268520702D5FA
:101AA000002B00D10EE27A4E72687C490A4021690F
:101AB00009020A437260326809218A431343336082
:101AC000FFF700FFF26812090F231340744AD35C3A
:101AD000D840744B18600020FFF7A4FC002800D009
:101AE000ECE12368DB062CD5002D5FD1684B1B6829
:101AF0009B0503D5E369002B00D1E5E1644A5368F7
:101B000069490B40616A0B43536053681B021B0A0F
:101B1000216A09060B435360636A590B0131802324
:101B20001B028B40D16809090F220A405C498A5C7C
:101B3000D3405C4A13600020FFF774FC002800D0FB
:101B4000BCE123681B077DD56369002B67D0504A31
:101B5000136D01210B431365FFF790FC06004C4BFE
:101B60001B6D9B076ED4FFF789FC801B0228F6D9FA
:101B70000320A3E146494B68484A134022691202F8
:101B800013434B60ADE7424A136801218B43136056
:101B9000FFF774FC06003E4B1B685B07A1D5FFF7FF
:101BA0006DFC801B0228F6D9032087E1E369002B36
:101BB00022D0374A116880235B000B431360FFF784
:101BC0005DFC0600324B1B689B0506D4FFF756FCF4
:101BD000801B0228F6D9032070E12D4A5368324950
:101BE0000B40616A0B43536053681B021B0A216A56
:101BF00009060B435360A4E7254A13682B490B40A1
:101C00001360FFF73BFC0600214B1B689B0598D532
:101C1000FFF734FC801B0228F6D903204EE11C4A52
:101C2000136D01218B431365FFF728FC0600184B49
:101C30001B6D9B0706D5FFF721FC801B0228F6D9F8
:101C400003203BE123685B0700D48CE0104B9B6BC7
:101C5000DB001BD40E4A916B80235B050B4393631F
:101C60000126134B1B68DB0526D5A3688022520092
:101C7000934235D0002B4BD1054B1A6D0B490A40CE
:101C80001A651A6D0B490A401A652FE00026E8E72D
:101C900000100240FFFFFEFFFFFFFBFFFFE0FFFF22
:101CA000E444000800000020FF1FFFFFFFFEFFFFCD
:101CB00000700040FFFBFFFF864A116880235B0035
:101CC0000B431360FFF7DAFB0700824B1B68DB0551
:101CD000CBD4FFF7D3FBC01B6428F6D90320EDE07B
:101CE0007D4A116D80235B000B431365A368002BB5
:101CF00028D0FFF7C3FB0700774B1B6D9B0530D443
:101D0000FFF7BCFBC01B754B9842F5D90320D5E00B
:101D1000A022D200934209D06F4B1A6D70490A403D
:101D20001A651A6D6F490A401A65DFE76A4B196D2B
:101D3000013AFF3A0A431A65196D802252000A439C
:101D40001A65D3E7FFF79AFB0700634B1B6D9B05F2
:101D500007D5FFF793FBC01B604B9842F5D90320D2
:101D6000ACE0012E21D023689B063CD5A369002B53
:101D700021D0594B99680120014399605A6B024365
:101D80005A63594A116A80239B010B431362FFF780
:101D900075FB0600504B9B689B0724D4FFF76EFB36
:101DA000801B0228F6D9032088E04B4A936B4F49E9
:101DB0000B409363D7E7484A936801218B439360B4
:101DC000494A136A4A490B401362FFF757FB060062
:101DD000414B9B689B0706D5FFF750FB801B0228F1
:101DE000F6D903206AE0A36A002B00D16EE00C2D27
:101DF00049D0022B12D0384A13683E490B40136079
:101E0000FFF73CFB0400344B1B689B0139D5FFF7FF
:101E100035FB001B0228F6D903204FE02E4A136839
:101E200034490B401360FFF729FB05002A4B1B6860
:101E30009B0106D5FFF722FB401B0228F6D90320A1
:101E40003CE02549CB682C4A1340E26A206B0243F0
:101E5000606B02431343CB600A6880235B04134327
:101E60000B60FFF70BFB04001B4B1B689B0106D4A8
:101E7000FFF704FB001B0228F6D903201EE0002018
:101E80001CE000201AE0144BDA6880235B02134048
:101E9000E16A8B4201D0012010E0F0239B03134044
:101EA000216B8B4201D0012008E0C0231B041A40A3
:101EB000636B9A420CD0012000E0012003B0F0BD1A
:101EC0000120FBE70120F9E70120F7E70020F5E713
:101ED0000020F3E70070004000100240881300006B
:101EE000FFFEFFFFFFFBFFFF00000140FFFFFFEFD2
:101EF000FFDFFFFFFFFFFFFEFFFF02FF70B50400E3
:101F00000D00002800D1BAE05F4B1A68012313408E
:101F10008B420BD25C490B68012293432B430B602D
:101F20000B681A40AA4201D00120A9E023689B0750
:101F300006D5564AD368F0218B43A1680B43D36082
:101F40002368DB0764D56368022B09D0032B29D0F3
:101F5000012B2DD04D4A1268920506D401208FE046
:101F60004A4A1268920300D48BE04849CA680320A9
:101F700082431343CB60FFF781FA06006368022BAC
:101F80001CD0032B28D0012B34D0404BDB680C2213
:101F90001A423DD0FFF772FA801B3D4B9842F4D9AC
:101FA00003206DE0394A12689201DED4012067E017
:101FB000364A12685207D8D4012061E0334BDA6800
:101FC0000C231340082B23D0FFF758FA801B304B0B
:101FD0009842F3D9032053E02C4BDA680C231340CA
:101FE0000C2B15D0FFF74AFA801B294B9842F3D9E6
:101FF000032045E0254BDA680C231340042B07D05F
:10200000FFF73CFA801B224B9842F3D9032037E0BC
:102010001D4B1A6801231340AB420BD91A490B68B8
:10202000012293432B430B600B681A40AA4201D054
:10203000012025E023685B0706D5144AD3681549BB
:102040000B40E1680B43D36023681B0707D50F499A
:10205000CB68114A13402269D2001343CB60FFF7CB
:1020600031FC0A4BDA6812090F2313400B4AD35C88
:10207000D8400B4B18600020FFF7D4F900E0012096
:1020800070BD0120FCE7C046002002400010024065
:1020900088130000FFF8FFFFFFC7FFFFE4440008BC
:1020A00000000020014B18687047C0460000002067
:1020B00010B5FFF7F7FF044BDA68120A0723134045
:1020C000024AD35CD84010BD00100240F44400081E
:1020D00010B5FFF7E7FF044BDA68D20A0723134075
:1020E000024AD35CD84010BD00100240F4440008FE
:1020F00070B5040082231B0102681A425AD0754B46
:102100009B6BDB0000D59DE0724A916B80235B05E1
:102110000B4393630125704B1B68DB0500D493E0F0
:102120006C4B1A68C0239B031A4061680B409342B2
:1021300000D19EE0C0239B020A001A409A4200D1BF
:102140009FE0644B1B6DC022920213401FD01140D0
:10215000994202D02268920608D4C0229202A16855
:102160000A409A4213D023681B0510D5594B186DAD
:102170005A4A02401E6D8021090331431965196DC9
:10218000574E314019651A65C30500D580E0636874
:10219000C022920219001140914200D188E04D49BD
:1021A0000B6DC02292026068024013430B65012D43
:1021B00000D187E02368DB0706D5464AD36C0321AC
:1021C0008B43E1680B43D36423689B0706D5414AE0
:1021D000D36C0C218B4321690B43D36423685B07C9
:1021E00006D53C4AD36C3F490B4061690B43D3642D
:1021F00023681B0706D5374AD36C3B490B40A169BE
:102200000B43D3642368DB0506D5324AD36C3349CC
:102210000B40E1690B43D36423685B0606D52D4A66
:10222000D36C32490B40616A0B43D36423681B06AD
:102230004ED5284AD36C2E490B40216A0B43D364F8
:10224000002070BD002566E7234A116880235B00EB
:102250000B431360FFF712F906001F4B1B68DB05E9
:1022600000D55DE7FFF70AF9801B6428F5D9032044
:10227000E7E7C0239B03A0680340934200D059E7DF
:102280005FE7144B1B689B0300D45AE70120D8E793
:10229000FFF7F4F806000F4B1B6D9B0500D576E7A2
:1022A000FFF7ECF8801B134B9842F4D90320C8E7E2
:1022B00008490A6810480240C020800303401343C5
:1022C0000B606CE70A008B6B0C490B40936371E762
:1022D0000020B6E70010024000700040FFFFFCFF46
:1022E000FFFFF7FFFFF3FFFFFFCFFFFFFFFFFFFB46
:1022F000FFFFF3FF88130000FFFFCFFFFFFFFFEF9B
:1023000003688022D205904208D0154A904205D039
:10231000144A904202D0144A904203D1702293434F
:102320004A6813438022D205904208D00C4A90425A
:1023300005D00C4A904202D00B4A904203D10B4A7E
:102340001340CA681343802293430A69134303600E
:102350008B68C3620B688362012343617047C04688
:10236000000400400008014000140140FFFCFFFF92
:1023700030B5036A012293430362036A44688269A9
:102380007325AA430D682A430225AB438D682B436E
:10239000446082614A684263036230BD30B5036ABB
:1023A000102293430362036A45688269084C144013
:1023B0000A68120222432024A3431C008B681B01DD
:1023C0002343456082614A688263036230BDC04630
:1023D000FF8CFFFF30B5036A0A4A13400362036AA9
:1023E0004568C2697324A2430C682243064C1C4012
:1023F0008B681B0223434560C2614A68C263036263
:1024000030BDC046FFFEFFFFFFFDFFFF30B5036A92
:102410000A4A13400362036A4568C269084C1440C3
:102420000A6812022243074C1C408B681B0323439B
:102430004560C2614A680264036230BDFFEFFFFF7E
:10244000FF8CFFFFFFDFFFFF30B5036A046A012541
:10245000AC4304628469EF35AC43120122430A2481
:10246000A34319438261016230BD000030B5036AA5
:102470001024A34303628469036A054D2C401203B0
:102480002243A024A343090119438261016230BDA4
:10249000FF0FFFFF0B008168702291431943072350
:1024A000194381607047000030B58468034D2C40AB
:1024B0001B021A4311432143816030BDFF00FFFF1F
:1024C00010B51F23194001248C40036AA343036203
:1024D000036A8A401A43026210BD70B5041E14D00C
:1024E0003923C35C002B0AD0392502236355211DF3
:1024F0002068FFF705FF01236355002070BD3833C6
:102500000022C25401F0CEFDEEE70120F6E770474D
:1025100070B5041E14D03923C35C002B0AD03925B2
:1025200002236355211D2068FFF7EAFE012363554E
:10253000002070BD38330022C254FFF7E8FFEEE7F9
:102540000120F6E710B5040001220068FFF7B8FF8C
:102550002268916807230B40062B03D013680121E2
:102560000B431360002010BD70B504000D0038232C
:10257000C35C012B69D038230121C15401330131DF
:10258000C154042A37D019D9082A4AD00C2A2AD192
:1025900029000068FFF73AFF2268D16980231B01F8
:1025A0000B43D3612268D36929490B40D361216869
:1025B000CB69EA6812021343CB6114E0002A12D1FE
:1025C00029000068FFF7D4FE2268936908210B43B5
:1025D00093612268936904398B43936122689369FC
:1025E000E9680B43936139230122E254013B002245
:1025F000E254002070BD29000068FFF7CFFE22687A
:10260000916980231B010B439361226893691049F0
:102610000B40936121688B69EA68120213438B6156
:10262000E1E729000068FFF7D5FE2268D369082199
:102630000B43D3612268D36904398B43D361226889
:10264000D369E9680B43D361CDE70220D2E7C046E6
:10265000FFFBFFFF10B504003823C35C012B66D0DD
:1026600038230122C25401330132C25402689368F4
:102670003048034093600B68402B4ED015D9602B37
:1026800041D021D9702B2BD080229201934232D19C
:10269000CB684A6889682068FFF706FF226891685E
:1026A0008023DB010B43936025E0102B07D004D976
:1026B000202B04D0302B02D01DE0002B1BD11900A1
:1026C0002068FFF7E7FE16E0502B14D1CA6849686E
:1026D0002068FFF7B9FE50212068FFF7DBFE0AE013
:1026E000CB684A6889682068FFF7DEFE2268936835
:1026F00077210B43936039230122E254013B0022EE
:10270000E254002010BDCA6849682068FFF7AEFE99
:1027100060212068FFF7BEFEEDE7CA6849682068BF
:10272000FFF792FE40212068FFF7B4FEE3E70220A6
:10273000E8E7C0468800FFFF704770477047704762
:1027400010B5040003681A6992070FD5DA6892077A
:102750000CD5032252421A610123037603689B6958
:102760009B0755D0FFF7EAFF0023237623681A69F9
:10277000520712D5DA6852070FD5052252421A6164
:102780000223237623689A69C0239B001A4245D00E
:102790002000FFF7D3FF0023237623681A6912076E
:1027A00010D5DA6812070DD5092252421A610423A6
:1027B00023762368DB699B0737D02000FFF7BEFF35
:1027C0000023237623681A69D20612D5DA68D20666
:1027D0000FD5112252421A61082323762368DA6941
:1027E000C0239B001A4227D02000FFF7A7FF002339
:1027F000237623681A69D20702D5DA68D20722D471
:1028000023681A69520602D5DA68520622D410BD2E
:10281000FFF793FF200000F08DFEA5E72000FFF7F3
:102820008CFF200000F086FEB5E72000FFF785FF53
:10283000200000F07FFEC3E72000FFF77EFF2000AE
:1028400000F078FED3E7022252421A612000FFF71F
:1028500073FFD5E7412252421A612000FFF76FFF54
:10286000D5E7F0B53823C35C012B1BD038260123F4
:102870009C46835539270133C355026854689368D1
:102880007025AC430D682C438025AB431D004B687D
:102890002B435460026893606346C35500238355FD
:1028A0000020F0BD0220FCE73823C35C012B06D0DA
:1028B0000368196538230022C254002070470220A3
:1028C000FCE700000268136806490B4013600268C9
:1028D00093682331FF318B43936020238367002368
:1028E00003667047DFFEFFFF30B5836F202B6DD18D
:1028F000002900D16CE0002A00D16BE083688024BD
:102900006401A3421AD07024045D012C64D07024A9
:10291000012505554165582142520231425200229B
:1029200002668022520193420FD0002B1CD1036912
:10293000002B15D15C33FF22C2521CE00469002C2D
:10294000E1D1CC07DFD5012041E00369002B03D1A1
:102950005C33224AC2520EE05C23FF22C2520AE0DC
:102960005C237F22C25206E08022520593421CD093
:102970005C230022C2520023C367223383670268AC
:10298000936801210B43936080235B0182689A4224
:1029900016D0134B036670230022C25402681168DC
:1029A000B0330B431360002011E00369002B03D107
:1029B0005C337F22C252DEE75C233F22C252DAE759
:1029C0000369002BE5D1074B0366E4E7022030BD25
:1029D0000120FCE70120FAE70220F8E7FF010000F0
:1029E000092A00086D2A0008704710B502681368AC
:1029F00040218B4313602023436700234366FFF786
:102A0000F3FF10BD7047000010B55C23C35A826FFE
:102A1000222A05D00268936908210B43936110BDF7
:102A20000268526ADBB21340426D1370436D01338A
:102A300043655A22835A013B9BB28352835A9BB20D
:102A4000002BECD10268136807490B401360026841
:102A500093682331FF318B439360202383670023E6
:102A60000366FFF7CFFFDAE7DFFEFFFF10B55C2359
:102A7000C25A836F222B05D00268936908210B4349
:102A8000936110BD03685B6A1340426D1380436D10
:102A9000023343655A22835A013B9BB28352835AC5
:102AA0009BB2002BEDD10268136808490B401360FC
:102AB000026893682331FF318B439360202383673F
:102AC00000230366FFF79EFFDBE7C046DFFEFFFF44
:102AD0007047000070B504000168CB6908688D6814
:102AE0000F221A400AD19E0608D5860606D5236E07
:102AF000002B00D189E02000984786E0002A6BD0A7
:102B000001222A4003D190267600304264D0DD07AE
:102B100006D5C50504D501250D62E16F2943E1679E
:102B2000990708D5002A06D0216802250D62E16FB9
:102B300002352943E167590708D5002A06D02168E4
:102B400004250D62E16F023D2943E167190709D5AC
:102B5000810601D4002A05D0226808211162E26FA3
:102B60000A43E267E26F002A4FD09B0606D5830630
:102B700004D5236E002B01D020009847E26F236814
:102B80009B685B0601D4130720D52000FFF79AFE4F
:102B900023689A68520615D59A6840218A439A603C
:102BA000E36E002B0AD01B4A9A63E06EFEF71CFD11
:102BB00000282AD0E06E836B984726E02000FFF7BC
:102BC00087FF22E02000FFF783FF1EE02000FFF7D1
:102BD0007FFF0023E36718E0DA0201D56A0209D417
:102BE0001A060ED502060CD5636E002B0DD0200000
:102BF00098470AE080235B030B62200000F0E8FAAC
:102C000003E05B0601D5430600D470BD2000FFF74A
:102C1000ECFEFAE7192C000810B5806A00235A224E
:102C20008352083A8352FFF753FF10BDD0B504001A
:102C3000016883680269134342691343C2691343FD
:102C40000A68BA48024013430B6022685368B849C7
:102C50000B40E1680B435360A1692268B54B9A426F
:102C600001D0236A19439368B34803400B43936030
:102C70002368B24A93421CD0B14A93422DD0B14A44
:102C800093425FD0B04A93425ED0AA4A934239D071
:102C90001022A8498B425BD080231B02E169994234
:102CA00000D190E0082A00D971E19200A74B9B580F
:102CB0009F46A74AD16C03220A40012A09D0002A64
:102CC00005D0022A3AD0032A05D01022E1E70122DA
:102CD000DFE70422DDE70822DBE79D4AD16C0C2206
:102CE0000A40042A0AD005D9082A29D00C2A07D17B
:102CF0000822CEE7002A03D10022CAE70422C8E74F
:102D00001022C6E7924AD26CC02109010A408021F4
:102D1000C9008A420ED009D9802109018A4215D002
:102D2000C02109018A4207D10822B2E7002A03D153
:102D30000022AEE70422ACE71022AAE70222A8E7AD
:102D40000222A6E70022A4E70022A2E70222A0E7CF
:102D5000022A2DD007D9042A30D0082A00D019E140
:102D60008020000207E0002A00D013E1FFF7A0F95D
:102D7000002800D110E1626853009B18834200D9FB
:102D80000CE11303834200D20AE1070E0602500849
:102D90000021801979410023FDF766FB6D4BC218B5
:102DA0006D4B9A4200D9FDE02368D860002085E091
:102DB000674B1B68DB0604D46848DCE7FEF782FD3E
:102DC000D6E76748D7E7082A62D89200654B9B5838
:102DD0009F46FFF76DF9400063685B08C0186168A3
:102DE000FDF792F903041B0C00205F491A00103A0A
:102DF0008A4200D9D8E00F22190091435B08083AB3
:102E000013400B432268D36058E0FFF761F940009C
:102E100063685B08C0186168FDF776F903041B0C52
:102E20000020E2E74A4B1B68DB060BD563685808B5
:102E30004E4B9C4660446168FDF766F903041B0C29
:102E40000020D2E763685808494B9C46604461689B
:102E5000FDF75AF903041B0C0020C6E7FEF732FD0C
:102E6000400063685B08C0186168FDF74DF9030412
:102E70001B0C0020B9E76368580880235B029C465E
:102E800060446168FDF740F903041B0C0020ACE7C7
:102E900001200023A9E7FFF70BF963685B08C0185E
:102EA0006168FDF731F903041B0C00202E491A005C
:102EB000103A8A4200D979E02268D3600023236661
:102EC0006366D0BDFFF704F963685B08C0186168EA
:102ED000FDF71AF903041B0C0020E7E71C4B1B68E5
:102EE000DB060BD5636858081D4B9C46604461683F
:102EF000FDF70AF903041B0C0020D7E763685808A4
:102F0000164B9C4660446168FDF7FEF803041B0CF9
:102F10000020CBE7FEF7D6FC63685B08C018616849
:102F2000FDF7F2F803041B0C0020BFE7F369FFEF85
:102F3000FFCFFFFF00480040FFF4FFFF00380140D3
:102F400000440040004C0040005000409044000805
:102F50000010024000FDFFFFFFFC0F000024F40002
:102F600000093D00B4440008EFFF000000127A00A1
:102F70000048E8016368580880231B029C466044AF
:102F80006168FDF7C1F803041B0C00208EE70120E7
:102F900000238BE7012091E700208FE701208DE7D8
:102FA00001208BE7012089E7012087E7012085E7E1
:102FB000436ADB0706D5026853682C490B40816AD7
:102FC0000B435360436A9B0706D502685368284940
:102FD0000B40C16A0B435360436A5B0706D5026826
:102FE000536824490B40016B0B435360436A1B0732
:102FF00006D50268536820490B40416B0B43536070
:10300000436ADB0606D5026893681C490B40816B56
:103010000B439360436A9B0606D502689368184980
:103020000B40C16B0B439360436A5B060BD5026890
:10303000536814490B40016C0B43536080235B03BE
:10304000026C9A420AD0436A1B0606D5026853688E
:103050000D490B40816C0B43536070470268536805
:103060000A490B40416C0B435360ECE7FFFFFDFF47
:10307000FFFFFEFFFFFFFBFFFF7FFFFFFFEFFFFFF5
:10308000FFDFFFFFFFFFEFFFFFFFF7FFFFFF9FFFE8
:10309000F0B5C64600B506000C0017009846069D20
:1030A0003368DB6923401B1B5A425341BB421CD18E
:1030B0006B1CF5D0FEF7E2F94346C01AA84201D8CE
:1030C000002DEDD1326813680A490B401360326855
:1030D0009368A331FF318B43936020237367B367F9
:1030E00050330022F254032000E0002004BC90463C
:1030F000F0BDC0465FFEFFFF30B583B00400002383
:10310000C367FEF7BBF9050023681B681B070CD4D7
:1031100023681B685B0715D420236367A3675033BC
:103120000022E254002003B030BD80210C4B0093FC
:103130000300002289032000FFF7AAFF0028E7D040
:103140000320F0E78021064B00932B000022C903E7
:103150002000FFF79DFF0028DED00320E3E7C046F4
:10316000FFFFFF0110B5041E2ED0436F002B21D0AE
:10317000242363672268136801218B4313602000B6
:10318000FFF754FD012814D0636A002B18D1226880
:1031900053680E490B405360226893682A218B4381
:1031A00093602268136829390B4313602000FFF7EE
:1031B000A3FF10BD70330022C25401F005F8D7E719
:1031C0002000FFF7F5FEE2E70120F2E7FFB7FFFF7F
:1031D00070470000004870472400002010B5194ACD
:1031E000136801331360184A136801331360642BAA
:1031F00002DD130000221A60134B1B685A2B04DDFA
:10320000114B1B685B2B0DDC10BD002220210F48E9
:10321000FEF743FB8021A02000224901C005FEF7F4
:103220003CFBEDE70A4B1A7820210848FEF735FBF6
:10323000084B1A788021A0204901C005FEF72DFB1C
:10324000E2E7C046200000203400002000080050C3
:103250002C0000204400002010B504008021012231
:1032600049000B48FEF719FBFEF708F96423634396
:10327000C018084B1860FEF701F9064B1B6898420E
:10328000F9D38021002249000148FEF706FB10BD5A
:10329000000800504000002010B504000122202149
:1032A0000A48FEF7FAFAFEF7E9F864236343C01808
:1032B000074B1860FEF7E2F8054B1B689842F9D3FC
:1032C000002220210148FEF7E8FA10BD000400505A
:1032D00040000020002805DD0B4B01221A600B4B3B
:1032E00000221A60002807DB002804D10023064AC8
:1032F0001360064A13607047034B00221A60034BA9
:1033000001321A60F0E7C0462C0000204400002083
:1033100070B50600012802D0002E32D070BD002406
:10332000314B1C60314B09221A600920FFF7D2FF94
:103330002F4B1C602F4B1C600CE02E4D2C68631E25
:103340009C41E4B2FEF79AF82B68834280414042E8
:1033500020420FD1264B1A68234B1B689A42ECD0AF
:10336000FEF78CF86430234B18601F4B1A68204B13
:103370001A60E2E71D4B00221A600020FFF7AAFF47
:10338000CAE70024184B1C6009204042174B186004
:10339000FFF7A0FF164B1C60164B1C600CE0154D90
:1033A0002C68631E9C41E4B2FEF768F82B688342E8
:1033B0008041404220420FD10D4B1A680A4B1B68D6
:1033C0009A42ECD0FEF75AF864300A4B1860064B6C
:1033D0001A68074B1A60E2E7044B00221A600020CB
:1033E000FFF778FF9AE7C046300000204800002031
:1033F00028000020400000200023034A1360034AF5
:103400001360034A13607047480000202C0000201E
:103410004400002010B5040080235B00984214D0C3
:10342000102C28D080231B029C4238D08023DB0143
:103430009C4240D08023DB009C4248D0802C52D05C
:1034400080239B009C4254D010BD8021A0204900C5
:10345000C005FEF71BFA0028E2D12C4B1B681B6845
:103460005B6A2B4A11688C4663445B081360294BE6
:1034700001221A70D4E710212748FEF707FA002826
:10348000D0D1224B1B681B685B6A244A11688C46AA
:1034900063445B081360224B01221A70C2E780214B
:1034A00009022048FEF7F2F90128BFD11E4A13682D
:1034B00001331360BAE78021C9011A48FEF7E6F923
:1034C0000128B7D1194A136801331360B2E780218C
:1034D000C9001448FEF7DAF90128AFD1144A13687D
:1034E00001331360AAE78021C9010E48FEF7CEF927
:1034F000A6E7802189000848FEF7C8F90128A3D172
:103500000121002000F0BEFA9EE7C04650000020D6
:10351000580000204C0000200008005054000020FB
:103520005C000020000400503C0000203800002017
:10353000300000200368124A934200D07047114ABD
:103540001278012A13D05B6A0F4A944663445B08E1
:103550000E4A13600E4B1B78012B0CD003685B6A7C
:10356000094A944663445B080A4A1360E6E7054B40
:1035700000221A70EEE7064B00221A70DEE7C04602
:10358000001401404C000020A086010058000020DB
:103590005C0000205400002010B50400FA22D20084
:1035A000084B1A60002308490B7008490A60084A52
:1035B0001370FEF7ADFF00212000FEF7C3FF054B9F
:1035C0001C6010BD580000204C000020540000205A
:1035D0005C00002050000020F0B5DE4657464E4605
:1035E0004546E0B589B01422002103A800F03CFF55
:1035F0004A4BD96A04221143D962D96A0A4000921F
:10360000009ADA6A01252A43DA62DA6A2A400192CC
:10361000019ADA6A02263243DA62DB6A33400293A5
:10362000029B9021002249003D48FEF736F9802395
:103630005B01994600221900A020C005FEF72DF974
:10364000F8239B009846002219003648FEF725F91A
:1036500010230393344B9A4604930024059403A942
:103660002F48FEF745F8202303930495059406950B
:1036700003A92B48FEF73CF8FC231B0203932B4FB6
:103680000497059403A92748FEF732F88023039393
:103690000497059403A92248FEF72AF880235B00CB
:1036A0009B46039304950594069403A91C48FEF7D2
:1036B0001FF880239B0003930497059603A91848DD
:1036C000FEF716F85B46039353460493059403A94B
:1036D000A020C005FEF70CF84B4603930495059413
:1036E000069503A9A020C005FEF702F84346039300
:1036F00004950594069403A90A48FDF7F9FF0022F2
:1037000000210720FDF7CEFE0720FDF7FBFE09B0E4
:103710003CBC90469946A246AB46F0BD0010024024
:10372000000800500004005000003110000011108B
:1037300000B583B0094A116B012319431163126B61
:1037400013400193019B002200210A20FDF7AAFEED
:103750000A20FDF7D7FE03B000BDC04600100240AE
:1037600030B583B008220021684600F07DFE0B4C86
:103770000B4B2360A0235B0063600025A560094B11
:10378000E36065612000FEF7A8FE0095019569469B
:103790002000FFF766F803B030BDC046E801002006
:1037A00000100040E8FD000030B58BB01022002171
:1037B00006A800F059FE0822002104A800F054FEDB
:1037C00010220021684600F04FFE214C214B23605F
:1037D000A0235B0063600025A560FA239B00E360E3
:1037E000256165612000FEF778FE80235B0106936A
:1037F00006A92000FEF72EFF2000FEF789FE0495A3
:10380000059504A92000FFF72CF86023009301958B
:1038100002950395002269462000FEF7A5FE0421CB
:103820002000FFF741F8042269462000FEF79CFEC5
:10383000082269462000FEF797FE0C226946200008
:10384000FEF792FE200000F06BFC0BB030BDC046CE
:10385000600000200004004030B58BB01022002131
:1038600006A800F001FE0822002104A800F0FCFDDB
:1038700010220021684600F0F7FD194C194B236017
:10388000202363600025A560174BE3602561656117
:103890002000FEF722FE80235B01069306A920008C
:1038A000FEF7D8FE2000FEF733FE0495059504A927
:1038B0002000FEF7D6FF60230093513B0193029551
:1038C0000395002269462000FEF74EFE04212000E9
:1038D000FEF7EAFF200000F023FC0BB030BDC0462D
:1038E0002C01002000140140E8FD000010B509483B
:1038F000094B036096239B01436000238360C360F0
:1039000003610C2242618361C36103624362FFF77A
:1039100029FC10BD680100200038014030B59FB07F
:103920003822002110A800F09FFD142200210BA8CE
:1039300000F09AFD2822002101A800F095FD16490B
:103940000B68164A1A4080231B0113430B600223A5
:10395000109301251395102214921A9300241B949E
:103960008023DB021C938023DB031D9310A8FEF74A
:1039700001F80F230B930C3B0C930D940E940F94B2
:1039800001210BA8FEF7BAFA0195049401A8FEF7ED
:10399000AFFB1FB030BDC04600700040FFE7FFFF27
:1039A000F8B5FDF757FDFFF7B9FFFFF715FEFFF775
:1039B000BFFEFFF7F9FEFFF799FFFFF7D1FEFFF714
:1039C0004BFF2B48FFF7E8FD2A4D280000F064F874
:1039D000FFF712FD00F096F900F0C2F900F0F6F9D9
:1039E0000120FFF795FC9627BF00234E3A00311CBB
:1039F000280000F011FAFA24A4002000FDF744FD8D
:103A00000020FFF785FC2000FDF73EFDC820800068
:103A1000FFF742FC0120FFF77BFC0021002000F0B3
:103A200031F8164AFC218905280000F0F5F920003C
:103A3000FDF72AFD0021002000F024F8220050218B
:103A4000280000F06DFA2000FDF71EFD0021002087
:103A500000F018F83A00311C280000F0DDF92000D1
:103A6000FDF712FDC8208000FFF7F6FBFEE7C04619
:103A70002C01002060000020000020410CFEFFFF10
:103A800070470000024B1870024B19707047C04617
:103A9000BC020020AF020020F0B583B0194C002317
:103AA0002380194F3B80194E3380194D2B80194AC2
:103AB0001380194A13800190FEF72AFD0021019816
:103AC000FEF740FD04210198FEF73CFD0821019816
:103AD000FEF738FD0C210198FEF734FD0023E25E6D
:103AE0000E4B5A6300217A5E9A630021725EDA639C
:103AF00000216A5E1A6400210020FFF7C3FF03B0B3
:103B0000F0BDC046AC020020440200207A02002032
:103B100030020020700200209402002000040040C7
:103B200010B5002904D100232148038021480380D7
:103B3000002A04D100232048038020480380002964
:103B400004DD1B4B19801B4B00201880002A04DD6C
:103B5000194B1A80194B00201880002919DB002A04
:103B60001EDB144B00229A5E154B5A63104A00214B
:103B7000525E9A63114A0021525EDA630E4A0021B6
:103B8000525E1A64FDF77AFC0A300E4B1860012071
:103B900010BD074B002018804942064B1980DEE714
:103BA000054B002119805242044B1A80D9E7C046C8
:103BB000AC020020440200207A02002030020020E3
:103BC000000400404802002010B5034B1960034B6D
:103BD0001A60FFF7A5FF10BD6802002088020020D0
:103BE000FA239B00984200DD1800024B984200D94E
:103BF00000207047905F0100F0B583B00090FDF7A2
:103C00003DFC304B1B68984201D803B0F0BD2E4BF1
:103C100018682E4B1B68C01AFDF790FB041C2C4B38
:103C200018602C4E3168FCF701FD071C30602A4DEE
:103C30002968201CFDF79EF9061C284B1860284BAC
:103C40001868FDF77BFB211CFDF762F80190254BFE
:103C50001968381CFDF75CF8011C0198FCF7E6FCBC
:103C6000071C214B1868FDF769FB311CFDF750F864
:103C7000011C381CFCF7DAFC1C49FCF771FE071C20
:103C80001B4B18601B4B1868FFF7AAFF06001A4B66
:103C900018601A4B1868FDF751FB391CFDF76AF9DB
:103CA000FDF72CFBFFF79CFF0200154B18602C6002
:103CB00031000098FFF734FFFDF7E0FB0A30014BBD
:103CC0001860A2E748020020380000203C000020D5
:103CD00098020020A00200205C02002028020020A0
:103CE000A40200204C020020900200200000C842E4
:103CF000800200206802002060020020880200206C
:103D0000C002002000230C4A13800C4A13800C4A86
:103D1000C821490011600B4A0B4911600B4A0A2166
:103D2000116000220A490A600A490A600A490A60C9
:103D30000A4A13607047C04678020020B40200208F
:103D4000A40200204C0200200AD7A33C90020020CD
:103D5000A00200205C02002028020020480200206F
:103D600000230D4A13800D4A13800D4A0D4911603E
:103D70000D4A0E4911600E4A0E49116000220E498B
:103D80000A600E490A600E490A600E4A13600E4B23
:103D9000FA2252001A60704778020020B402002014
:103DA000A80200200000C8439C0200200AD7A33CC0
:103DB0004002002000002041540200203402002074
:103DC0002C020020500200207C0200200023024A26
:103DD0001360024A13607047380000203C00002046
:103DE0000023024A1360024A136070473800002023
:103DF0003C000020012804D0022805D0044B18689C
:103E00007047034B1868FBE7024B1868F8E7C04699
:103E1000380000203C00002070B505000E1C140086
:103E2000374B1A60374B1A601100FFF7CDFE364949
:103E3000301CFCF76DFF354B186018E0344B1B78D5
:103E4000012B1CD0324B1B78022B26D0002C03DD1B
:103E5000304B1B78012B2DD00120FFF7CBFFFDF756
:103E60006DFA2A4B1968FCF7EBFA002835D1244B80
:103E70001B68002BE2DD2800FFF7BEFEDEE7002313
:103E80001F4A13601F4A1360234B01221A6000224D
:103E900000212800FFF798FED4E7194B1C60194B4E
:103EA0001C601D4B00221A60220021002800FFF731
:103EB0008BFECBE70023124A1360124A13600022E4
:103EC00000212800FFF780FE0120FFF793FF134C2D
:103ED0002060FFF785FF206811E00023084A136087
:103EE000084A1360002200212800FFF76DFE012020
:103EF000FFF780FF094C2060FFF772FF206870BD5C
:103F0000840200206C0200200060C64424020020CD
:103F1000BC020020AF020020B0020020640200209A
:103F200070B505000C00160000291ADB4C4B1A6016
:103F300053424C4A13604B4B1A68494B196828008E
:103F4000FFF742FE002C12DBA3001C1963011C1BAF
:103F500060005A21FCF762F9FDF7F0F9424B186056
:103F60004FE053423E4A13603E4B1E60E3E7A3001E
:103F70001C1963011C1B600040425A21FCF74EF9DA
:103F8000FDF7DCF9384B18603BE00023344A13603E
:103F9000344A1360354B01221A60002200212800A8
:103FA000FFF712FE31E02E4B1E6072422D4B1A605D
:103FB00000232E490B602E490B7031002800FFF7BB
:103FC00003FE26E00023264A1360264A13600022DF
:103FD00000212800FFF7F8FD0120FFF70BFF254C1B
:103FE0002060FFF7FDFE206870BD234B1860224B58
:103FF0001868FDF7A3F91C4B1968FCF721FA002893
:104000001BD11B4B1B78012BBFD0194B1B78022BEC
:10401000C9D01A4B1B78012BD4D00120FFF7EAFE40
:104020000400174B18600220FFF7E4FE154B1860E0
:104030008442DADD104B1C60D9E70023084A136084
:10404000084A1360002200212800FFF7BDFD01206F
:10405000FFF7D0FE074C2060FFF7C2FE2068C3E7E1
:10406000840200206C02002024020020B002002004
:10407000BC02002064020020B8020020AF02002031
:104080008C020020C4020020054B5A6B01210A4318
:104090005A63996B802252050A439A637047C0465F
:1040A0000010024010B50368194A934206D0194A1D
:1040B000934211D0184A93421CD010BD174A936BFB
:1040C00002210B439363002200211020FDF7EAF93F
:1040D0001020FDF717FAF0E7104A936B10210B43FD
:1040E0009363002200211120FDF7DCF91120FDF778
:1040F00009FAE2E7094A536B20210B43536300227C
:1041000000211620FDF7CEF91620FDF7FBF9D4E7C4
:104110000004004000100040001401400010024064
:1041200010B588B004001422002103A800F09CF907
:104130002368204A934204D01F4A934227D008B0F4
:1041400010BD1E4BD96A01221143D962D96A0A40B7
:104150000092009ADA6A02242243DA62DB6A234080
:104160000193019BC023039304940794A02003A907
:10417000C005FDF7BDFA03230393049400230593C0
:104180000693079403A90E48FDF7B2FAD7E70B4A46
:10419000D16A04231943D162D26A13400293029B6D
:1041A000402303933E3B049303A90648FDF7A0FA7E
:1041B000C5E7C04600040040001401400010024062
:1041C000000400500008005030B587B004001422ED
:1041D000002101A800F048F92D4B22689A4201D035
:1041E00007B030BD2B4B596B8022D2010A435A6372
:1041F000D96A01221143D962DB6A1A400092009BFE
:10420000C023DB00019302230293032504950233AC
:104210000593A02001A9C005FDF76AFA1E481F4BAF
:1042200003604560102383600023C3608022026125
:1042300043618361C3610362FDF78AF9002820D1DD
:10424000154BA3669C621648164B0360032343601C
:1042500000238360C3608022026143618361C36184
:104260000362FDF775F900280ED10D4BE3669C62E1
:10427000002200211B20FDF715F91B20FDF742F954
:10428000AEE7FFF7FDFBDBE7FFF7FAFBEDE7C04624
:1042900000380140001002409C0000201C00024039
:1042A000E4000020300002407047FEE7704770478E
:1042B00010B5FEF793FF10BD10B51020FDF7F4FA0E
:1042C0008020FDF7F1FA80204000FDF7EDFA802014
:1042D0008000FDF7E9FA8020C000FDF7E5FA8020B4
:1042E0000001FDF7E1FA80204001FDF7DDFA8020B2
:1042F0008001FDF7D9FA8020C001FDF7D5FA8020B2
:104300000002FDF7D1FA10BD10B50348FDF793F98F
:104310000248FDF790F910BD9C000020E400002049
:1043200010B50248FEF70CFA10BDC0466000002030
:1043300010B50248FEF704FA10BDC046E80100209F
:1043400010B50248FEF7FCF910BDC0462C01002054
:1043500010B5064C2000FEF7BDFBFEF73BFF010049
:1043600001222000FEF7C0FA10BDC04668010020FF
:10437000104B1968802252000A431A60DA680E490D
:104380000A40DA601A680D490A401A609A680121E9
:104390008A439A601A680A490A401A60DA68094929
:1043A0000A40DA6000221A61074B802212059A60E7
:1043B0007047C046001002400C40FF88F6FFF6FE32
:1043C000FFFFFBFFFFFF02FF00ED00E00D48854609
:1043D000002103E00C4B5B58435004310B480C4B5D
:1043E00042189A42F6D30B4A02E0002313600432CB
:1043F000094B9A42F9D3FFF7BBFF00F011F8FFF722
:10440000CFFAFEE700500020CC4500080000002055
:104410000400002004000020C8020020FEE7000085
:1044200070B500260C4D0D4C641BA410A64209D19A
:10443000002600F021F80A4D0A4C641BA410A64285
:1044400005D170BDB300EB5898470136EEE7B300D5
:10445000EB5898470136F2E7C4450008C445000808
:10446000C4450008C845000803001218934200D153
:10447000704719700133F9E7F8B5C046F8BC08BCBD
:104480009E467047F8B5C046F8BC08BC9E467047CB
:10449000962E0008C42E0008DC2E00088E2F00087F
:1044A000142F00088E2F00088E2F00088E2F000872
:1044B000742F0008D22D00080A2E0008242E0008B0
:1044C000902E00085C2E0008902E0008902E000808
:1044D000902E0008762E0008030406080C10182001
:1044E0003000000000000000000000000102030492
:1044F000060708090000000001020304DE0A0008A4
:104500001A0A00083E0A0008DC0900083E0A0008F2
:10451000BA0A00083E0A0008DC0900081A0A000866
:104520001A0A0008BA0A0008DC090008100B000883
:10453000100B0008100B0008C60A00081A0A000831
:104540001A0A00083E0A0008DA0900083E0A0008B4
:10455000BA0A00083E0A0008DA0900081A0A000828
:104560001A0A0008BA0A0008DA090008100B000845
:10457000100B0008100B0008C40A0008080E000801
:10458000B20D0008B20D0008E00E0008AE0D0008E4
:10459000AE0D0008D60E0008E00E0008AE0D0008B3
:1045A000D60E0008AE0D0008E00E0008E40E00086C
:0C45B000E40E0008E40E0008EC0E000809
:0845BC00ECBEFF7F01000000CE
:0445C400E900000802
:0445C800C100000826
:0445CC0000002000CB
:04000005080043CDDF
:00000001FF
